{
  "contractName": "SafeMath",
  "abi": [
    {
      "inputs": [
        {
          "internalType": "uint256",
          "name": "a",
          "type": "uint256"
        },
        {
          "internalType": "uint256",
          "name": "b",
          "type": "uint256"
        }
      ],
      "name": "safeAdd",
      "outputs": [
        {
          "internalType": "uint256",
          "name": "c",
          "type": "uint256"
        }
      ],
      "stateMutability": "pure",
      "type": "function"
    },
    {
      "inputs": [
        {
          "internalType": "uint256",
          "name": "a",
          "type": "uint256"
        },
        {
          "internalType": "uint256",
          "name": "b",
          "type": "uint256"
        }
      ],
      "name": "safeSub",
      "outputs": [
        {
          "internalType": "uint256",
          "name": "c",
          "type": "uint256"
        }
      ],
      "stateMutability": "pure",
      "type": "function"
    },
    {
      "inputs": [
        {
          "internalType": "uint256",
          "name": "a",
          "type": "uint256"
        },
        {
          "internalType": "uint256",
          "name": "b",
          "type": "uint256"
        }
      ],
      "name": "safeMul",
      "outputs": [
        {
          "internalType": "uint256",
          "name": "c",
          "type": "uint256"
        }
      ],
      "stateMutability": "pure",
      "type": "function"
    },
    {
      "inputs": [
        {
          "internalType": "uint256",
          "name": "a",
          "type": "uint256"
        },
        {
          "internalType": "uint256",
          "name": "b",
          "type": "uint256"
        }
      ],
      "name": "safeDiv",
      "outputs": [
        {
          "internalType": "uint256",
          "name": "c",
          "type": "uint256"
        }
      ],
      "stateMutability": "pure",
      "type": "function"
    }
  ],
  "bytecode": "0x608060405234801561001057600080fd5b506103ff806100206000396000f3fe608060405234801561001057600080fd5b506004361061004c5760003560e01c8063a293d1e814610051578063b5931f7c14610081578063d05c78da146100b1578063e6cb9013146100e1575b600080fd5b61006b600480360381019061006691906101c6565b610111565b6040516100789190610215565b60405180910390f35b61009b600480360381019061009691906101c6565b610134565b6040516100a89190610215565b60405180910390f35b6100cb60048036038101906100c691906101c6565b610156565b6040516100d89190610215565b60405180910390f35b6100fb60048036038101906100f691906101c6565b61018e565b6040516101089190610215565b60405180910390f35b60008282111561012057600080fd5b818361012c9190610311565b905092915050565b600080821161014257600080fd5b818361014e9190610286565b905092915050565b6000818361016491906102b7565b9050600083148061017f575081838261017d9190610286565b145b61018857600080fd5b92915050565b6000818361019c9190610230565b9050828110156101ab57600080fd5b92915050565b6000813590506101c0816103b2565b92915050565b600080604083850312156101dd576101dc6103ad565b5b60006101eb858286016101b1565b92505060206101fc858286016101b1565b9150509250929050565b61020f81610345565b82525050565b600060208201905061022a6000830184610206565b92915050565b600061023b82610345565b915061024683610345565b9250827fffffffffffffffffffffffffffffffffffffffffffffffffffffffffffffffff0382111561027b5761027a61034f565b5b828201905092915050565b600061029182610345565b915061029c83610345565b9250826102ac576102ab61037e565b5b828204905092915050565b60006102c282610345565b91506102cd83610345565b9250817fffffffffffffffffffffffffffffffffffffffffffffffffffffffffffffffff04831182151516156103065761030561034f565b5b828202905092915050565b600061031c82610345565b915061032783610345565b92508282101561033a5761033961034f565b5b828203905092915050565b6000819050919050565b7f4e487b7100000000000000000000000000000000000000000000000000000000600052601160045260246000fd5b7f4e487b7100000000000000000000000000000000000000000000000000000000600052601260045260246000fd5b600080fd5b6103bb81610345565b81146103c657600080fd5b5056fea2646970667358221220626ef82e6834dc555e2c1d708270d4fe89965fb71e79a729e5a0ea956296f85c64736f6c63430008060033",
  "immutableReferences": {},
  "source": "// SPDX-License-Identifier: MIT\npragma solidity >=0.8.5 <0.9.0;\n\nimport \"./Modifiers.sol\";\n\ncontract SafeMath {\n \n    function safeAdd(uint a, uint b) public pure returns (uint c) {\n        c = a + b;\n        require(c >= a);\n    }\n \n    function safeSub(uint a, uint b) public pure returns (uint c) {\n        require(b <= a);\n        c = a - b;\n    }\n \n    function safeMul(uint a, uint b) public pure returns (uint c) {\n        c = a * b;\n        require(a == 0 || c / a == b);\n    }\n \n    function safeDiv(uint a, uint b) public pure returns (uint c) {\n        require(b > 0);\n        c = a / b;\n    }\n}\n \n \n//ERC Token Standard #20 Interface\n \nabstract contract ERC20Interface {\n    function totalSupply() public virtual view returns (uint);\n    function balanceOf(address tokenOwner) public virtual view returns (uint balance);\n    function allowance(address tokenOwner, address spender) public virtual view returns (uint remaining);\n    function transfer(address to, uint tokens) public virtual returns (bool success);\n    function approve(address spender, uint tokens) public virtual returns (bool success);\n    function transferFrom(address from, address to, uint tokens) public virtual returns (bool success);\n \n    event Transfer(address indexed from, address indexed to, uint tokens);\n    event Approval(address indexed tokenOwner, address indexed spender, uint tokens);\n}\n\ncontract WTHB is Modifiers, ERC20Interface, SafeMath {\n\n  string public name = \"Water Bear - Thai Baht Stable Coin\";\n  string public symbol = \"wTHB\";\n  uint256 internal _totalSupply = 0;\n  uint8 public decimals = 18;\n  mapping(address => uint256) public _balanceOf;\n  mapping(address => mapping(address => uint256)) public _allowance;\n\n  constructor() {\n  }\n\n  function allowance(address _allower, address _spender) public override view returns(uint256) {\n    return _allowance[_allower][_spender];\n  }\n\n  function balanceOf(address _address) public override view returns(uint256) {\n    return _balanceOf[_address];\n  }\n\n  function totalSupply() public override view returns(uint256) {\n    return _totalSupply;\n  }\n\n  function mint(address _to, uint256 _value) public owneronly returns(bool success) {\n    success = false;\n    _balanceOf[_to] += _value;\n    _totalSupply += _value;\n    success = true;\n  }\n\n  function transfer(address _to, uint256 _value) public override returns(bool success) {\n    success = false;\n    require(_balanceOf[msg.sender] >= _value, \"Not enough money to transfer\");\n    _balanceOf[msg.sender] -= _value;\n    _balanceOf[_to] += _value;\n    emit Transfer(msg.sender, _to, _value);\n    success = true;\n  }\n\n  function approve(address _spender, uint256 _value) public override returns(bool success) {\n    success = false;\n    _allowance[msg.sender][_spender] = _value;\n    emit Approval(msg.sender, _spender, _value);\n    success = true;\n  }\n\n  function transferFrom(address _from, address _to, uint256 _value) public override returns(bool success) {\n    success = false;\n    require(_balanceOf[_from] >= _value);\n    require(_allowance[msg.sender][_from] >= _value);\n    _balanceOf[_from] -= _value;\n    _balanceOf[_to] += _value;\n    emit Transfer(_from, _to, _value);\n    success = true;\n  }\n}\n",
  "sourcePath": "/Users/wacharintangseree/blockchain/waterbear-finance/contracts/WTHB.sol",
  "compiler": {
    "name": "solc",
    "version": "0.8.6+commit.11564f7e.Emscripten.clang"
  },
  "schemaVersion": "3.4.1",
  "updatedAt": "2021-07-06T10:54:23.865Z",
  "devdoc": {
    "kind": "dev",
    "methods": {},
    "version": 1
  },
  "userdoc": {
    "kind": "user",
    "methods": {},
    "version": 1
  }
}